:020000040800F2
:10000000D80C002099220008F9020008FB02000821
:10001000FF020008030300080703000800000000B7
:100020000000000000000000000000000B030008BA
:100030000D030008000000000F030008B1220008B3
:10004000B3220008B3220008B3220008B32200083C
:10005000B3220008B3220008B3220008B32200082C
:10006000B3220008B3220008B3220008B32200081C
:10007000B3220008B3220008B3220008B32200080C
:10008000B3220008B3220008B3220008B3220008FC
:10009000B3220008B3220008B3220008B3220008EC
:1000A000B3220008F30F0008B3220008B3220008AF
:1000B00071060008B3220008B3220008B32200082A
:1000C000B3220008B3220008B3220008B3220008BC
:1000D000B32200086F3F0008B3220008B3220008D3
:1000E000B3220008B3220008B322000800F002F88F
:1000F00000F062F80AA090E8000C82448344AAF160
:100100000107DA4501D100F057F8AFF2090EBAE85D
:100110000F0013F0010F18BFFB1A43F0010318473B
:1001200060A5000080A500000A444FF0000C10F804
:10013000013B13F0070408BF10F8014B1D1108BF65
:1001400010F8015B641E05D010F8016B641E01F805
:10015000016BF9D113F0080F1EBF10F8014BAD1C55
:100160000C1B09D16D1E58BF01F801CBFAD505E073
:1001700014F8016B01F8016B6D1EF9D59142D6D3CD
:10018000704700000023002400250026103A28BFF5
:1001900078C1FBD8520728BF30C148BF0B607047F9
:1001A000642907F06983782907F0A283002070474B
:1001B0001FB51FBD10B510BD07F0F6FD1146FFF7C6
:1001C000F7FF00F009F807F014FE03B4FFF7F2FFA1
:1001D00003BC03F0F1FD000003F07EFD03F0E6FD3B
:1001E0000020364908604FF4E13003F0F4FD4FF48D
:1001F000967003F0AEFD40F2CF2140F22B1000F0DC
:10020000A3FB40F2CF2140F22B1000F044FC9621DA
:100210002B4803F01DFD9621294803F01BFDC82142
:10022000274803F019FD96214FF0804003F00EFDA2
:1002300096214FF0804003F00BFD04F066F800F0CB
:10024000FEFE40F6B83003F084FD41F61F41132056
:1002500000F078FC02E0C82003F07BFD06F098FA7D
:100260000028F8D128E0174A1749184806F0DAFAAA
:1002700048B9174A1749184804F011F9174A18499C
:10028000184804F0E4F818480068012812D117490A
:1002900009684FF4A57201FB02F0C11700EB115180
:1002A0000913134A116010460068124908600020C3
:1002B0000D49086001F0E1FCD5E70000A400002032
:1002C0000008004090000020880000208C000020E2
:1002D0009800002096000020940000209E0000203E
:1002E0009C0000209A000020E00000202C0000204C
:1002F0003000002040000020704700BFFEE700BF34
:10030000FEE700BFFEE700BFFEE77047704770479B
:100310000CB50020019000906C48006840F48030DB
:100320006A49086000BF6948006800F40030009026
:100330000198401C0190009818B90198B0F5A06F81
:10034000F1D16248006800F4003010B10120009043
:1003500001E0002000900098012843D15C4800682B
:1003600040F010005A4908600846006820F0030079
:1003700008600846006840F0020008605348406882
:10038000524948600846406848600846406840F462
:10039000806048600846406820F47C104860084649
:1003A000406840F4E81048600846006840F08070FB
:1003B000086000BF4548006800F000700028F9D0D0
:1003C0004248406820F003004049486008464068C1
:1003D00040F00200486000BF3C48406800F00C005C
:1003E0000828F9D10CBD10B5FFF792FF10BD10B56C
:1003F0003648006840F0010034490860084640680B
:10040000344908403149486008460068324908408C
:100410002E4908600846006820F4802008600846DD
:10042000406820F4FE0048604FF41F008860FFF72A
:10043000DAFF4FF000602949086010BD10B50021B7
:1004400000200022214B5B6803F00C0121B104293C
:1004500006D0082928D107E0214B224C236027E051
:100460001F4B204C236023E0184B5B6803F4701093
:10047000164B5B6803F48032022303EB904022B9F1
:10048000194B4343174C23600DE0104B5B6803F49A
:10049000003323B1144B4343124C236003E0104B51
:1004A0004343104C236003E00D4B0E4C236000BF10
:1004B00000BF064B5B68C3F303130C4CE15C094BB4
:1004C0001B68CB40074C236010BD000000100240A9
:1004D000002002400000FFF8FFFFF6FE08ED00E0FC
:1004E00000127A004400002000093D00480000206E
:1004F00030B585B005460C460121084602F083FA66
:100500000121042002F072FA0F20ADF8100028201B
:100510008DF8130004A9F84801F0ACFF0F21F6484C
:1005200002F057F8ADF80850ADF804400020ADF8DF
:100530000A00ADF8060001A94FF0804002F092FDDC
:100540000420EE4908800020488001208880002097
:10055000C88008814FF0804003F017F80820E74971
:10056000088000204880012088800020C880088101
:100570004FF0804003F009F80C20E049088000208B
:100580004880012088800020C88008814FF080408A
:1005900002F0FBFF0020D9490880488001208880B4
:1005A0000020C88008814FF0804002F0EEFF1C2040
:1005B0008DF8000002208DF8010000208DF8020067
:1005C00001208DF80300684601F08BFE01221E21F8
:1005D000900703F0BEF80121880703F09FF805B0EB
:1005E00030BD00B587B00121042002F0FFF90121E0
:1005F000084602F008FA0320ADF818008DF81A003A
:1006000028208DF81B0006A9BB4801F033FF4FF6E8
:10061000FF70ADF810000020ADF80C00ADF812002E
:10062000ADF80E0003A94FF0804002F01BFD02233D
:100630001A460321580703F024F9684603F051F8DD
:100640000620ADF8080069464FF0804002F09DFF9B
:1006500047F6FF714FF0804003F0F4FA012188075C
:1006600003F022FB0121880703F058F807B000BD12
:1006700010B50221480703F01AFB00283FD00221E1
:10068000480703F025FB9E48007800F0400030B397
:100690004FF0804003F0ECFA9A4908800846008841
:1006A0009949098888420ADA974800884FF6FF710D
:1006B000081A9449098808449449086006E091485A
:1006C000008891490988401A9049086000208C49A7
:1006D000087000214FF0804003F0D2F90FE04FF096
:1006E000804003F0C5FA884908808548007840F0CA
:1006F0004000834908700221480703F0C1F9042132
:10070000080703F0D4FA70B30421080703F0E0FAF5
:100710007F48007800F0400030B34FF0804003F095
:10072000AAFA7C490880084600887B4909888842E3
:100730000ADA794800884FF6FF71081A7549098866
:1007400008447649086006E07248008872490988C2
:10075000401A7249086000206D49087000214FF06E
:10076000804003F09FF90FE04FF0804003F083FAE0
:10077000694908806648007840F040006449087084
:100780000221480703F08EF90821C80603F08FFA0A
:1007900070B30821C80603F09BFA6148007800F0A6
:1007A000400030B34FF0804003F068FA5D490880A4
:1007B000084600885C49098888420ADA5A48008855
:1007C0004FF6FF71081A57490988084457490860CD
:1007D00006E05448008854490988401A5349086083
:1007E00000204F49087000214FF0804003F074F959
:1007F0000FE04FF0804003F041FA4B490880484831
:10080000007840F04000464908700221480703F094
:1008100063F91021880603F04AFA70B310218806A4
:1008200003F056FA4248007800F0400030B34FF031
:10083000804003F026FA3F490880084600883E4978
:10084000098888420ADA3C4800884FF6FF71081A86
:100850003849098808443949086006E03548008865
:1008600035490988401A3549086000203049087028
:1008700000214FF0804003F049F90FE04FF0804035
:1008800003F0FFF92C4908802948007840F0400027
:10089000274908700221480703F038F921480088E9
:1008A0001C490988884205DA1F4800881A490988C6
:1008B000884214DB1C48008817490988884212DAEC
:1008C00018480088134909884FF6FF72114488427E
:1008D00009DA1048008810490988884203DA0120A3
:1008E0001749087002E00020154908701548006893
:1008F000401C1449086010BD000801407801002028
:10090000580000205C0000205A00002070000020E9
:100910005E000020620000206000002074000020C3
:10092000640000206800002066000020780000209D
:100930006A0000206E0000206C0000207C00002077
:10094000840000208000002030B589B005460C46A8
:100950000121042002F057F80121082002F046F896
:100960004FF46070ADF8200018208DF823000320AC
:100970008DF8220008A96F4801F07CFDADF81850F1
:10098000ADF814400020ADF81A00ADF8160005A926
:10099000694802F067FB7020ADF804000120ADF853
:1009A00006000020ADF80A00ADF80C0001A962486D
:1009B00002F0D7FB01A9604802F020FC01A95E48C3
:1009C00002F067FC01A95C4802F089FB08215A4843
:1009D00002F0D4FF0821584802F0D9FF08215648F8
:1009E00002F0E2FF0821544802F0E7FF01215248DB
:1009F00002F094FF0121504802F090FE09B030BD92
:100A000030B589B005460C460121022001F0FBFFFC
:100A10000121082001F0EAFF0320ADF82000182092
:100A20008DF8230003208DF8220008A9414801F029
:100A300021FDADF81850ADF814400020ADF81A00B3
:100A4000ADF8160005A93D4802F00CFB7020ADF88A
:100A500004000120ADF806000020ADF80A00ADF852
:100A60000C0001A9354802F0C9FB01A9334802F086
:100A700010FC0821314802F097FF08212F4802F0AE
:100A80009CFF01212D4802F049FF01212B4802F073
:100A900045FE09B030BD30B589B005460C46012190
:100AA000084601F0B0FF0121042001F09FFF032060
:100AB000ADF8200018208DF8230003208DF82200C7
:100AC00008A91F4801F0D6FCADF81850ADF8144045
:100AD0000020ADF81A00ADF8160005A94FF08040CF
:100AE00002F0C0FA7020ADF804000120ADF8060055
:100AF0000020ADF80A00ADF80C0001A94FF08040CD
:100B000002F0EDFA01A94FF0804002F02AFB082123
:100B1000C80602F033FF0821C80602F038FF0121A1
:100B2000880702F0FBFE0121880702F0F7FD09B0FB
:100B300030BD0000000C01400008004000040040EF
:100B4000000801407FB504460D460121C80201F0AE
:100B50004DFFADF80840681E80B2ADF804000020DB
:100B6000ADF80A00ADF806008DF80C0001A9FE48AA
:100B700002F078FA0121FC4803F096F801224121A5
:100B8000F94802F0E6FD19208DF8000000208DF8EC
:100B900001008DF8020001208DF80300684601F085
:100BA000A0FB0121F04802F0B9FD7FBD2DE9F04125
:100BB000EE48B0F9000007F06EFF0646EC4AED4B38
:100BC00007F080FF044607F009FFEB49086008467C
:100BD0000068C0F1C800E949086008460068C828F4
:100BE00001DDC8200860E54800685A2802DA5A206A
:100BF000E2490860E148008881B2E14803F02CF83E
:100C0000BDE8F0812DE9F04104460021206808F09C
:100C10002BFC03D2206880F0004020600021606837
:100C200008F022FC03D2606880F000406060002180
:100C3000A06808F019FC03D2A06880F00040A06012
:100C40000021E06808F010FC03D2E06880F000406A
:100C5000E0602069E0612169206A08F039FA2062C9
:100C6000A169206908F03CFD60622069A061616AA9
:100C7000A06808F02DFC0646216A606808F028FC90
:100C80000746E169206808F023FC8046394608F0F1
:100C90001FFA0546314608F01BFA6061BDE8F08195
:100CA00010B5B848B0F9000032385A2148436421E1
:100CB00090FBF1F0B44908600846006808F0A8FB12
:100CC0000446B2480168204608F00AFDB0490861B0
:100CD0000846FFF797FFAF48006808F099FB044605
:100CE000AB484169204608F0BFFB04D2A948006820
:100CF00008F08EFB01E0A6484069A5494861A54877
:100D00000068404208F084FB0446A148416920463F
:100D100008F0AAFC05D29F480068404208F078FB22
:100D200001E09B4840699A4948619B48B0F900003E
:100D300032385A214843642190FBF1F064309749DE
:100D400008600846006808F063FB044694480168A0
:100D5000204608F0C5FC934908610869924908F0EB
:100D600083FB09D28F490869904908F07DFC03D2C2
:100D70008F488C49086002E08E488A49086089489B
:100D8000FFF740FF8C48006808F042FB04468548A6
:100D90004169204608F068FB04D28748006808F0E3
:100DA00037FB01E07F4840697E494861824800681E
:100DB000404208F02DFB04467A484169204608F07D
:100DC00053FC05D27C480068404208F021FB01E05A
:100DD000744840697349486110BD2DE9FC5F77484C
:100DE000B0F9000008F014FB044669484169204648
:100DF00008F06BFC724908610846FFF703FF714871
:100E0000006808F005FB04466D484169204608F07B
:100E10002BFB04D26B48006808F0FAFA01E068483E
:100E200040696749486167480068404208F0F0FA45
:100E3000044663484169204608F016FC05D2614823
:100E40000068404208F0E4FA01E05D4840695C490E
:100E500048615D48008808F0F3FA05465848416942
:100E6000284608F035F9044608F096FA5749086014
:100E70005748B0F9000008F0CBFA044649484169E8
:100E8000204608F022FC534908610846FFF7BAFEE5
:100E90005148006808F0BCFA04464E4841692046B3
:100EA00008F0E2FA04D24C48006808F0B1FA01E018
:100EB000484840694749486147480068404208F04F
:100EC000A7FA044643484169204608F0CDFB05D205
:100ED00041480068404208F09BFA01E03D48406903
:100EE0003C4948613D48008808F0AAFA054639485F
:100EF0004169284608F0F4FB044608F04DFA3849E9
:100F0000086008460068922805DD084600689A28AF
:100F100001DA962008602D48008881B2184802F056
:100F200097FE1D48B0F9000064214843322190FB30
:100F3000F1FB584607F0AFFD00222A4BCDE9000136
:100F400007F0C0FD06460F462548006807F0A3FDE0
:100F5000804632463B4607F0A5FF044607F06EFD8B
:100F60001FFA80FA51463FE0002C01402201002088
:100F70009A9999999999F13FB0000020B400002006
:100F80000008004024010020D40000208C00002034
:100F900084010020BC00002026010020D800002091
:100FA00088000020AC0100200000A0400000A0C08C
:100FB0000000F0410000A042C00000209E00002080
:100FC000D4010020CC000020B8000020A8000020A0
:100FD0009A000020FC010020D0000020BA00002070
:100FE000AC0000200000E03F6F4802F033FEBDE897
:100FF000FC9F10B501216D4802F059FEF0B1FFF7DA
:10100000D5FDFFF74DFE6A480068401C684908603E
:10101000084600686749884202DD0020644908608C
:1010200063480068052190FBF1F201FB120008B94A
:10103000FFF7D3FE01215D4802F04AFE10BD0020FB
:101040005D494861086188615C4888605C48086067
:10105000002048605B494861086188615A4888609F
:101060005A48086000204860594948610861886111
:10107000584888604FF07E5008600020486056490C
:1010800048610861886155488860554808600020BB
:1010900048605449486108618861534888605348F2
:1010A00008600020486052494861086188614948E9
:1010B00088604FF07E5008600020486070472DE93E
:1010C000FF5F04462068002802DA20684042206062
:1010D0006068002802DA606840426060A06800280A
:1010E00002DAA0684042A060A269E168881A08F0AC
:1010F0008FF90390E06808F08BF902900223A2694F
:10110000E16803FB1211E269881808F081F90546CD
:10111000A069E061E068A061E068002802DDE068A5
:101120000A283ADBE06810F10A0F02DDE0680028C7
:1011300033DB206830B9606820B9A06810B900209E
:1011400060612AE0A06808F063F98246294608F049
:10115000BFF98046606808F05BF90090029908F0DA
:10116000B7F98246206808F053F90090039908F017
:10117000AFF98346514607F0ABFF8146414607F081
:10118000A7FF0746606908F043F93946019007F068
:101190009FFF064608F000F960616421606990FBDA
:1011A000F1F06061BDE8FF9F00080040002C0140A5
:1011B000DC000020008793038401002000004842E7
:1011C0000000C842D40100200AD7A33CCDCC4C3D3E
:1011D000240200209A99993EAC0100200000F041C1
:1011E0000000A042FC0100200AD7A33B0AD7233C01
:1011F0004C02002070B504460D462946204602F0F8
:1012000001FF70BD2DE9F04105460E460027AA20DA
:10121000FC4908704870EF2088700220C8700846AA
:1012200005714671002405E0F648005D3844C7B2F8
:10123000601CC4B2062CF7DBF24887710721FFF768
:10124000D9FFBDE8F0812DE9F04105460E460027A3
:10125000AA20EC4908704870EE2088700220C870FF
:10126000084605714671002405E0E648005D3844F3
:10127000C7B2601CC4B2062CF7DBE24887710721B5
:10128000FFF7B8FFBDE8F0812DE9FE4F06460F4697
:1012900090469946DDF830B00024A246AA222146A5
:1012A000641CD84842542146641C425404222146FE
:1012B000641C425400222146641C42542146641C92
:1012C00046542146641C4754CDF804809DF80720FD
:1012D0002146641C42549DF806202046611CCCB275
:1012E000C8490A549DF805202046611CCCB2C54966
:1012F0000A549DF804202046611CCCB2C1490A540E
:10130000CDF804909DF807202046611CCCB2BD4961
:101310000A549DF806202046611CCCB2B9490A54F3
:101320009DF805202046611CCCB2B6490A549DF8B0
:1013300004202046611CCCB2B2490A545946B24836
:1013400008F0C6F8009008F027F800B202909DF867
:1013500009202046611CCCB2AA490A549DF80820F5
:101360002046611CCCB2A7490A54201FC870002532
:1013700006E0A448405D504400F0FF0A681CC5B276
:10138000A542F6DB2046611CCCB29E4901F800A0C4
:1013900021469C48FFF72EFFBDE8FE8F2DE9FC5F3C
:1013A00006460F4690469946DDF830B00024A24626
:1013B000AA222146641C934842542146641C42548C
:1013C00006F10F00C2B22146641C8E48425400222E
:1013D0002146641C42548D49384608F079F8009043
:1013E00007F0DAFF00B201909DF805202146641C49
:1013F000844842549DF804202146641C4254834989
:10140000404608F065F8009007F0C6FF00B2019072
:101410009DF805202146641C7A4842549DF804201A
:101420002046611CCCB277490A547849484608F0F6
:101430004FF8009007F0B0FF00B201909DF8052032
:101440002046611CCCB26F490A549DF80420204606
:10145000611CCCB26B490A546C49584608F038F804
:10146000009007F099FF00B201909DF805202046FA
:10147000611CCCB263490A549DF804202046611CCB
:10148000CCB260490A5461490D9808F021F80090E7
:1014900007F082FF00B201909DF805202046611CF4
:1014A000CCB258490A549DF804202046611CCCB2A5
:1014B00054490A5455490E9808F00AF8009007F06C
:1014C0006BFF00B201909DF805202046611CCCB254
:1014D0004C490A549DF804202046611CCCB249496D
:1014E0000A544A490F9807F0F3FF009007F054FFA1
:1014F00000B201909DF805202046611CCCB2414904
:101500000A549DF804202046611CCCB23D490A547F
:101510003E49109807F0DCFF009007F03DFF00B255
:1015200001909DF805202046611CCCB235490A5433
:101530009DF804202046611CCCB232490A5433493C
:10154000119807F0C5FF009007F026FF00B2019048
:101550009DF805202046611CCCB22A490A549DF80A
:1015600004202046611CCCB226490A54201FC870B2
:10157000002506E02348405D504400F0FF0A681C47
:10158000C5B2A542F6DB2046611CCCB21D4901F86C
:1015900000A021461B48FFF72DFEBDE8FC9F2DE96A
:1015A000F84306460F460024A046AA222146641CA2
:1015B000144842542146641C425405222146641CAE
:1015C000425400222146641C425400969DF801209A
:1015D0002146641C42549DF800202146641C42545C
:1015E00000979DF801202146641C42549DF800207C
:1015F0002046611CCCB203490A54201FC870002544
:101600000DE00000860200200000C84200007A447D
:10161000FE48405D404400F0FF08681CC5B2A5428A
:10162000F6DB2046611CCCB2F84901F80080214667
:10163000F648FFF7DFFDBDE8F8837FB500240026FC
:10164000AA222146641CF14842542146641C42549B
:1016500006222146641C425400222146641C425446
:101660009DF801202146641C42549DF8002021462B
:10167000641C42549DF805202146641C42549DF888
:1016800004202046611CCCB2E0490A549DF8092090
:101690002046611CCCB2DD490A549DF80820204642
:1016A000611CCCB2D9490A549DF80D202046611C1A
:1016B000CCB2D6490A549DF80C202046611CCCB20D
:1016C000D2490A549DF821202046611CCCB2CF4952
:1016D0000A549DF820202046611CCCB2CB490A5404
:1016E0009DF825202046611CCCB2C8490A549DF8BB
:1016F00024202046611CCCB2C4490A549DF82920FC
:101700002046611CCCB2C1490A549DF828202046CD
:10171000611CCCB2BD490A549DF82D202046611CA5
:10172000CCB2BA490A549DF82C202046611CCCB298
:10173000B6490A54201FC870002505E0B348405D33
:101740003044C6B2681CC5B2A542F7DB2046611C16
:10175000CCB2AE490E542146AC48FFF74BFD7FBDDD
:1017600073B500240026AA222146641CA7484254CF
:101770002146641C425407222146641C4254002224
:101780002146641C42549DF803202146641C4254A7
:101790009DF802202146641C42549DF801202146F8
:1017A000641C42549DF800202046611CCCB297492D
:1017B0000A549DF805202046611CCCB293490A5476
:1017C0009DF804202046611CCCB290490A54201F89
:1017D000C870002505E08D48405D3044C6B2681CE5
:1017E000C5B2A542F7DB2046611CCCB287490E5436
:1017F00021468648FFF7FEFC7CBD2DE9F84F0646E2
:101800000F4690469946DDF828B00024A246AA2249
:101810002146641C7D4842542146641C42540222E5
:101820002146641C425400222146641C4254009606
:101830009DF801202146641C42549DF80020214659
:10184000641C425400979DF801202146641C4254B8
:101850009DF800202046611CCCB26C490A54CDF89A
:1018600000809DF801202046611CCCB267490A54D3
:101870009DF800202046611CCCB264490A54CDF882
:1018800000909DF801202046611CCCB25F490A54AB
:101890009DF800202046611CCCB25C490A54CDF86A
:1018A00000B09DF801202046611CCCB257490A5473
:1018B0009DF800202046611CCCB254490A540B9874
:1018C00000909DF801202046611CCCB24F490A547B
:1018D0009DF800202046611CCCB24C490A540C985B
:1018E00000909DF801202046611CCCB247490A5463
:1018F0009DF800202046611CCCB244490A540D9842
:1019000000909DF801202046611CCCB23F490A544A
:101910009DF800202046611CCCB23C490A540E9828
:1019200000909DF801202046611CCCB237490A5432
:101930009DF800202046611CCCB234490A54002096
:1019400000909DF801202046611CCCB22F490A541A
:101950009DF800202046611CCCB22C490A54201F5F
:10196000C870002506E02948405D504400F0FF0A99
:10197000681CC5B2A542F6DB2046611CCCB22349E7
:1019800001F800A021462148FFF734FCBDE8F88F9C
:101990002DE9F84F80468946164600240027AA22E2
:1019A0002146641C194842542146641C42540B22AF
:1019B0002146641C425400222146641C42541449AE
:1019C000404607F085FD824607F0E6FC00B2009035
:1019D0009DF801202146641C0C4842549DF80020CB
:1019E0002146641C42544946094807F071FD82466D
:1019F00007F0D2FC00B200909DF801202146641C43
:101A0000024842549DF80020204603E08602002050
:101A1000CDCCCC3D611CCCB2FE490A543146FE48C7
:101A200007F056FD824607F0B7FC00B200909DF823
:101A300001202046611CCCB2F6490A549DF80020D2
:101A40002046611CCCB2F3490A54201FC8700025FF
:101A500005E0F048405D3844C7B2681CC5B2A542F5
:101A6000F7DB2046611CCCB2EA490F542146E94815
:101A7000FFF7C0FBBDE8F88F2DE9FE4F82460E460A
:101A800017469846DDF830B00024CDF80480A14612
:101A9000AA222146641CDF4842542146641C425459
:101AA00001222146641C425400222146641C4254F7
:101AB000DA49504607F00CFD009007F06DFC00B2CB
:101AC00002909DF809202146641CD24842549DF89A
:101AD00008202146641C4254D049304607F0F8FCE7
:101AE000009007F059FC00B202909DF809202146B1
:101AF000641CC84842549DF808202146601CC4B2AA
:101B0000C4484254C549384607F0E2FC009007F04B
:101B100043FC00B202909DF809202046611CCCB223
:101B2000BC490A549DF808202046611CCCB2B94932
:101B30000A549DF807202046611CCCB2B5490A54CE
:101B40009DF806202046611CCCB2B2490A549DF88B
:101B500005202046611CCCB2AE490A549DF80420F1
:101B60002146601CC4B2AB4842542046611CCCB232
:101B7000A84901F800B02146621CD4B2A54A0D98CC
:101B80005054201F1146C870002506E0A148405D52
:101B9000484400F0FF09681CC5B2A542F6DB2046A8
:101BA000611CCCB29B4901F8009021469948FFF78F
:101BB00021FBBDE8FE8F2DE9FF41064600240027EA
:101BC000AA222146641C934842542146641C425474
:101BD00000222146641C42542146641C4254214682
:101BE000641C46549DF805202146641C42549DF80F
:101BF00004202146641C42549DF809202046611CA3
:101C0000CCB284490A549DF808202046611CCCB20D
:101C100080490A549DF80D202146601CC4B27D48BD
:101C200042549DF80C202046611CCCB279490A54DC
:101C30009DF829202046611CCCB276490A549DF8B3
:101C400028202046611CCCB272490A54201FC8705B
:101C5000002505E06F48405D3844C7B2681CC5B236
:101C6000A542F7DB2046611CCCB26A490F542146DD
:101C70006848FFF7BFFABDE8FF8110B586B0684835
:101C800000786849097890FBF1F201FB1201654880
:101C90000078401E814202D101206349C87060482B
:101CA00000786249097890FBF1F201FB12015F486C
:101CB0000078401E814202D101205B4908715848DA
:101CC00000785B49097890FBF1F201FB120158485A
:101CD0000078801E814202D101205349C8735048C8
:101CE00000785449097890FBF1F201FB1201514848
:101CF0000078401E814202D101204B49887048483B
:101D000000784D49097890FBF1F201FB12014A4835
:101D10000078401E814202D101204349C8724048E8
:101D200000784649097890FBF1F201FB1201434823
:101D30000078801E814202D101203B494873384817
:101D400000783F49097890FBF1F201FB12013C4811
:101D50000078801E814202D10120334988733048C7
:101D600000783849097890FBF1F201FB12013548FF
:101D70000078C01E814202D101202B4908742848F6
:101D800000783149097890FBF1F201FB12012E48ED
:101D90000078C01E814204D12348407C401C224967
:101DA00048741F480078401CC0B21D490870C828FC
:101DB00001DD002008701C48007848B100201A4955
:101DC00008702248017822480078FFF71BFA2FE1BB
:101DD0001548407860B10020134948704FF4C8732B
:101DE00064224FF4967100900420FFF7E4FE1FE197
:101DF0000D48807868B100200B49887000902D2331
:101E0000024601901348016813480068FFF734FE4A
:101E10000EE123E086020020CDCCCC3D0000C8427C
:101E2000E6000020E700002074020020E800002007
:101E3000E9000020EA000020EB000020EC00002078
:101E4000ED000020EE000020EF000020E500002063
:101E5000E4000020880000208C000020FE48007C68
:101E600040B10020FC490874002211461046FFF7DB
:101E70008FFDDDE0F848C07B18B10020F649C8733B
:101E8000D6E0F548C078E8B10020F349C8700222D6
:101E9000F24BB3F90030CDE901320392F0480492DD
:101EA000B0F900000090EF48B0F90030EE48B0F90A
:101EB0000020EE48B0F90010ED48B0F90000FFF73F
:101EC0009CFCB5E0E448007938B10020E249087193
:101ED0002D210846FFF744FCAAE0DF48C07A18B17C
:101EE0000020DD49C872A3E0DB48407BA8B1002098
:101EF000D9494873009001900290DE4C03902488E9
:101F0000A3B2DD4C2488A2B2DC4C2488A1B2DC4C04
:101F10002488A0B2FFF791FB8AE0CF48807B40B1D4
:101F20000020CD4988734FF4E4717B20FFF737FB25
:101F30007EE0C948407978B10020C74948710290D5
:101F400003900490059000900346024601460190DC
:101F50000120FFF723FA6BE0BF48807978B10020B9
:101F6000BD4988710290039004900590009003464B
:101F70000246014601900220FFF710FA58E0B648E9
:101F8000C07978B10020B449C871029003900490E0
:101F90000590009003460246014601900320FFF79A
:101FA000FDF945E0AC48007A78B10020AA490872F2
:101FB000029003900490059000900346024601466B
:101FC00001900420FFF7EAF932E0A348407A78B1A3
:101FD0000020A1494872029003900490059000905F
:101FE00003460246014601900520FFF7D7F91FE09E
:101FF0009948807A78B100209749887202900390BE
:102000000490059000900346024601460190062088
:10201000FFF7C4F90CE09048407C022808D100206A
:102020008D4948740346024601460090FFF72CF99B
:1020300006B010BD9349097839B9AA2805D1012104
:10204000904A11709049087056E08E49097801292C
:1020500007D1AF2805D102218A4A11708A494870F8
:102060004AE088490978022907D1F12805DA0321D5
:10207000844A1170844988703EE0824909780329B6
:102080000CD132280ADA04217E4A11707E49C870C8
:102090007E49087000217E4A11702DE07949097847
:1020A000042919D179490978002915DD774909787A
:1020B000491E764A117076490978754A1278521C81
:1020C000734B1A70091D704A50547049097899B9B8
:1020D00005216C4A11700FE06A490978052908D179
:1020E0000021684A11706A490978091D664A5054EE
:1020F00002E00021634A117070477FB5002400267A
:10210000AA222146641C634842542146641C42545E
:1021100003222146641C425400222146641C42547E
:102120009DF801202146641C42549DF80020214660
:10213000641C42549DF805202146641C42549DF8BD
:1021400004202046611CCCB252490A549DF8092053
:102150002146601CC4B24F4842549DF808202046D6
:10216000611CCCB24B490A549DF80D202046611CDD
:10217000CCB248490A549DF80C202046611CCCB2D0
:1021800044490A549DF821202046611CCCB24149A3
:102190000A549DF820202046611CCCB23D490A54C7
:1021A0009DF825202146601CC4B23A4842549DF84F
:1021B00024202046611CCCB236490A549DF82920BF
:1021C0002046611CCCB233490A549DF82820214690
:1021D000601CC4B22F4842549DF82D202046611C3B
:1021E000CCB22C490A549DF82C202046611CCCB25C
:1021F00028490A549DF831202046611CCCB225495B
:102200000A549DF830202046611CCCB221490A5462
:102210009DF835202046611CCCB21E490A549DF819
:1022200034202046611CCCB21A490A54201FC870C1
:10223000002505E01748405D3044C6B2681CC5B2B1
:10224000A542F7DB2046611CCCB212490E54214650
:102250001048FEF7CFFF7FBD740200209E000020D3
:102260009C0000209A00002098000020960000208A
:10227000940000202601002024010020A800002056
:10228000AC000020F2000020B8020020F000002086
:10229000F1000020860200200948804709480047D5
:1022A000FEE7FEE7FEE7FEE7FEE7FEE7FEE7FEE706
:1022B000FEE7FEE704480549054A064B7047000063
:1022C000EF030008ED000008D8060020D80C00201D
:1022D000D8080020D808002031490143314A116054
:1022E000704770B5002100230F22C47804B32D4C31
:1022F000246804F4E064C4F5E064210AC1F1040335
:10230000CA40447804FA03F1847814402143090157
:10231000254C0678A155047804F01F050124AC4033
:1023200005786D11AD0005F1E025C5F8004109E023
:10233000047804F01F050124AC401C4D067876118A
:1023400045F8264070BD1A4A0A400243154B1B1F30
:102350001A60704739B1134A121D12680243114BBB
:102360001B1D1A6006E00F4A121D126882430D4BB6
:102370001B1D1A607047042808D14FF0E02109693D
:1023800041F004014FF0E022116107E04FF0E0213D
:10239000096921F004014FF0E0221161704700004B
:1023A0000000FA050CED00E000E400E080E100E050
:1023B00080FFFF1F10B50446CC48844208D101219C
:1023C000042000F02DFB0021042000F029FB46E052
:1023D000C748844208D10121082000F021FB0021D8
:1023E000082000F01DFB3AE0C248844208D10121D8
:1023F000102000F015FB0021102000F011FB2EE052
:10240000BD48844208D10121202000F009FB0021B1
:10241000202000F005FB22E0B848844208D10121C9
:10242000402000F0FDFA0021402000F0F9FA16E00B
:10243000B348844208D10121802000F0F1FA002144
:10244000802000F0EDFA0AE0AE48844207D1012175
:10245000801500F0E5FA0021A01500F0E1FA10BDAA
:1024600010B50121084600F0DBFA0021012000F040
:10247000D7FA10BD2DE9F0410246002500260020C4
:1024800000230024002791F803C00CF00F0591F8F9
:1024900003C00CF0100CBCF1000F03D091F802C087
:1024A0004CEA050591F800C0BCF1000F31D014686A
:1024B00000202BE04FF0010C0CFA00F3B1F800C043
:1024C0000CEA03069E4220D183004FF00F0C0CFA59
:1024D00003F7BC4305FA03FC4CEA040491F803C07B
:1024E000BCF1280F06D14FF0010C0CFA00FCC2F829
:1024F00014C00AE091F803C0BCF1480F05D14FF0B9
:10250000010C0CFA00FCC2F810C0401C0828D1D302
:102510001460B1F800C0BCF1FF0F34DD5468002036
:102520002EE000F1080C4FF0010808FA0CF3B1F8A6
:1025300000C00CEA03069E4221D183004FF00F0C2D
:102540000CFA03F7BC4305FA03FC4CEA040491F8C7
:1025500003C0BCF1280F05D100F1080C08FA0CF8F3
:10256000C2F8148091F803C0BCF1480F07D100F104
:10257000080C4FF0010808FA0CF8C2F81080401C53
:102580000828CED35460BDE8F0814FF6FF7101807A
:10259000022181700421C1707047024600209368B7
:1025A0000B400BB1012000E0002070470146886815
:1025B00080B2704702460020D3680B400BB1012067
:1025C00000E0002070470146C86880B27047016192
:1025D0007047416170470AB1016100E04161704795
:1025E000C16070474FF480320A4382618161826129
:1025F00082698269704702460020434B18684FF693
:102600008073184040EA021008433F4B186070473F
:102610003E49C8617047F0B50A46002300240021F6
:10262000002500F00046B6F1004F02D1364EF169A8
:1026300001E0354E7168C0F3034583B200F44016E3
:10264000B6F5401F08D121F070612F4E766826F054
:1026500070662D4F7E6012E000F48016B6F5801F84
:1026600006D1032606FA05F4A14341F0706106E0A5
:10267000460D360103FA06F6B14341F0706122B10E
:10268000460D360103FA06F6314300F00046B6F176
:10269000004F02D11C4EF16101E01B4E7160F0BD94
:1026A00030B500228B071C0F0F2303FA04F2164BE0
:1026B00008338C1053F824309343134C08348D1096
:1026C00044F8253023468C1053F824308C07240F0F
:1026D00000FA04F423430C4C08348D1044F82530E0
:1026E00030BD0A49DC310860704700000008014035
:1026F000000C01400010014000140140001801408E
:10270000001C014000200140000001400000204268
:10271000DF48006840F00100DD4908600846406875
:10272000DC490840DA49486008460068DA49084050
:10273000D74908600846006820F4802008600846F1
:10274000406820F4FE0048604FF41F008860704726
:10275000CF49096821F48031CD4A116011460968DA
:1027600021F480211160B0F5803F03D0B0F5802FB7
:102770000ED106E0C649096841F48031C44A1160AF
:1027800007E0C349096841F4A021C14A116000E093
:1027900000BF00BF704710B5014600220023002093
:1027A0004A11012A02D1BA4C236806E0022A02D15A
:1027B000B74C236A01E0B64C636A01F01F020124A2
:1027C00094401C400CB1012000E0002010BD38B541
:1027D000002000900024002500BF3120FFF7DBFF20
:1027E00005460098401C00900098B0F5A06F01D0FD
:1027F000002DF2D03120FFF7CEFF08B1012400E018
:102800000024204638BD01460020A14A106820F06F
:10281000F80040EAC10010607047A04908607047A6
:10282000024600209A4B586820F47C1042EA0103CB
:102830001843974B5860704798490866704701469F
:102840000020934A506820F003000843506070470E
:102850008F48406800F00C007047014600208C4A09
:10286000506820F0F0000843506070470146002097
:10287000874A506820F4E060084350607047014682
:102880000020834A506820F4605040EAC100506044
:10289000704729B17E4A527A02437D4B5A7204E056
:1028A0007B4A527A82437A4B5A7270477B49D831BD
:1028B0000860704701460020754A506820F4404087
:1028C0000843506070470021714A20321170704AED
:1028D00082F82010012802D004280AD104E0012146
:1028E0006B4A2032117005E00521694A20321170CF
:1028F00000E000BF00BF7047694908607047644945
:10290000096A0143624A11627047654944390860A7
:10291000704730B500210022002400235C4D6D6813
:1029200005F00C0121B1042905D0082923D105E0C7
:102930005C4D056022E05B4D05601FE0544D6D6805
:1029400005F47012524D6D6805F48034022505EBD4
:1029500092421CB9544D554305600BE04C4D6D68D7
:1029600005F400351DB1504D5543056002E04D4D55
:102970005543056002E04B4D056000BF00BF444D6C
:102980006D6805F0F0010909484D6B5C0568DD4094
:1029900045603F4D6D6805F4E061090A434D6B5C8D
:1029A0004568DD4085603A4D6D6805F46051C90A9F
:1029B0003E4D6B5C4568DD40C560354D6D6805F486
:1029C0004041890B3A4D6B5CC568B5FBF3F5056179
:1029D00030BD29B12E4A526902432D4B5A6104E0A1
:1029E0002B4A526982432A4B5A61704729B1284ABF
:1029F00092690243264B9A6104E0254A9269824318
:102A0000234B9A61704729B1214AD2690243204B76
:102A1000DA6104E01E4AD26982431D4BDA617047D5
:102A200029B11B4AD2680243194BDA6004E0184A04
:102A3000D2688243164BDA60704729B1144A126992
:102A40000243134B1A6104E0114A12698243104B8E
:102A50001A61704712494039086070470F49C864CD
:102A600070470B49C87170470948406A40F0807050
:102A700007494862704701460020054A92680A40AB
:102A80000AB1012000E000207047014988727047B8
:102A9000001002400000FFF8FFFFF6FE0000424277
:102AA0008004424200127A0000093D00F300002039
:102AB0000301002010B50446FB48844209D10121DE
:102AC0008803FFF7ADFF00214FF48040FFF7A8FF18
:102AD00032E0F648844209D101214804FFF7ADFFF6
:102AE00000214FF40030FFF7A8FF25E0F0488442B2
:102AF00009D101218804FFF7A0FF00214FF48020B5
:102B0000FFF79BFF18E0EB48844209D10121C8047C
:102B1000FFF793FF00214FF40020FFF78EFF0BE03B
:102B2000E548844208D101210805FFF786FF00210E
:102B30004FF48010FFF781FF10BD2DE9F04786B0FC
:102B400005460E460024A24600BFA1460027B089D4
:102B500000B100BF2F462C8A4CF6FF700440F0886D
:102B600004432C82AC894EF6F3100440B0883189BE
:102B70000843718908430443AC81AC8A4FF6FF4097
:102B80000440B0890443AC8201A8FFF7C2FEC648E6
:102B9000874202D1DDF810A001E0DDF80CA0A88981
:102BA00000F4004040B10AEBCA0000EB0A103168A3
:102BB0004900B0FBF1F807E00AEBCA0000EB0A108D
:102BC00031688900B0FBF1F86420B8FBF0F0040133
:102BD0002009642101FB1089A88900F4004040B15C
:102BE000322000EBC900B0FBF1F000F00700044315
:102BF00008E0322000EB09106421B0FBF1F000F096
:102C00000F0004432C8106B0BDE8F0874FF4165145
:102C1000016000218180C18001810C21418100215E
:102C20008181704710B502460020108A4FF2FF03E1
:102C300018400B884C8823438C882343CC8823433B
:102C40001843108210BD0021018041808180C18025
:102C5000704721B1828942F40052828104E0828966
:102C60004DF6FF731A4082817047F0B50346002489
:102C700000260025002040F66A17B94200D100BFA7
:102C80001846C1F3421401F01F06012707FA06F5A2
:102C9000012C01D10C3004E0022C01D1103000E0F5
:102CA00014301AB107682F43076002E00768AF438A
:102CB0000760F0BD1AB1838A0B43838202E0838AE6
:102CC0008B4383827047028A4FF6F0731A40028268
:102CD000028A0A430282704782894FF2FF731A40C8
:102CE000828182890A438281704721B1828942F0C0
:102CF0000202828104E082894FF6FD731A408281CC
:102D00007047028A4FF6DF731A400282028A0A4332
:102D10000282704721B1028A42F48042028204E0BA
:102D2000028A4BF6FF731A4002827047C1F3080211
:102D30008280704701468888C0F308007047818907
:102D400041F0010181817047028BD2B20283028B74
:102D500042EA012202837047028B02F47F4202831F
:102D6000028B0A430283704721B1828A42F020021B
:102D7000828204E0828A4FF6DF731A4082827047B3
:102D800021B1828A42F01002828204E0828A4FF6E8
:102D9000EF731A408282704721B1828A42F00802A2
:102DA000828204E0828A4FF6F7731A40828270476B
:102DB00021B1828942F40042828103E08289C2F318
:102DC0000E028281704721B1828A42F400628282BF
:102DD00004E0828A4FF2FF731A4082827047828A2F
:102DE0004FF6FB731A408282828A0A4382827047BE
:102DF00021B1828A42F00202828204E0828A4FF686
:102E0000FD731A408282704702460020B1F5007FB0
:102E100000D100BF13880B400BB1012000E000205F
:102E2000704701F40072B2F5007F00D100BFCA43C1
:102E30000280704770B50246002400230025002060
:102E400040F66A16B14200D100BFC1F3421501F04D
:102E50001F03012606FA03F3012D02D196893340A0
:102E600006E0022D02D1168A334001E0968A3340F3
:102E70000C12012606FA04F41688344013B10CB182
:102E8000012000E0002070BD10B50022002340F6B4
:102E90006A14A14200D100BF0A1201249440A3B2D7
:102EA000DC43048010BD00000038014000440040B5
:102EB00000480040004C00400050004010B504465F
:102EC000FE48844208D10121C014FFF7A9FD00216A
:102ED000E014FFF7A5FDC4E0B4F1804F08D1012153
:102EE0000846FFF7AAFD00210120FFF7A6FDB8E084
:102EF000F348844208D101210220FFF79EFD002102
:102F00000220FFF79AFDACE0EE48844208D101218F
:102F10000420FFF792FD00210420FFF78EFDA0E0C2
:102F2000E948844208D101210820FFF786FD0021ED
:102F30000820FFF782FD94E0E448844208D1012193
:102F40001020FFF77AFD00211020FFF776FD88E0C2
:102F5000DF48844208D101212020FFF76EFD0021C7
:102F60002020FFF76AFD7CE0DA48844208D1012185
:102F70004014FFF755FD00216014FFF751FD70E08C
:102F8000D548844209D10121C804FFF749FD002139
:102F90004FF40020FFF744FD63E0D048844209D19C
:102FA00001210805FFF73CFD00214FF48010FFF7D9
:102FB00037FD56E0CA48844209D101214805FFF790
:102FC0002FFD00214FF40010FFF72AFD49E0C5480E
:102FD000844208D101214020FFF72FFD002140202D
:102FE000FFF72BFD3DE0C048844208D1012180203D
:102FF000FFF723FD00218020FFF71FFD31E0BB48D4
:10300000844208D101218015FFF717FD0021A0158A
:10301000FFF713FD25E0B648844209D101210804D9
:10302000FFF7FEFC00214FF48030FFF7F9FC18E0B9
:10303000B048844209D101214804FFF7F1FC002186
:103040004FF40030FFF7ECFC0BE0AB48844208D1B2
:1030500001218804FFF7E4FC00214FF48020FFF7F2
:10306000DFFC10BD00220288944B98420ED0994B91
:1030700098420BD0B0F1804F08D0914B984205D0C8
:10308000904B984202D0904B984204D14FF68F73E8
:103090001A404B881A438D4B984207D08C4B98426C
:1030A00004D04FF6FF431A40CB881A4302808B8826
:1030B00083850B880385814B98420BD0854B9842C2
:1030C00008D08B4B984205D08A4B984202D08A4B4D
:1030D000984201D10B7A038601238382704770B531
:1030E000002400220023058C4FF6FE76354005842F
:1030F000028C8388048B4FF68F752C40B51E2C40B4
:103100000D882C43751E2A400D892A434D882A4379
:103110006A4DA8420BD06F4DA84208D0744DA8420A
:1031200005D0744DA84202D0734DA84213D14FF67A
:10313000F7752A404D892A434FF6FB752A408D8842
:103140002A434FF6FF652B404FF6FF552B408D89E4
:103150002B43CD892B4383800483CD8885860284CD
:1031600070BD70B5002400220023058C4FF6EF7669
:1031700035400584028C8388048B48F6FF752C400B
:103180004FF6FF452C400D884FF6FF7606EA0525E1
:103190002C434FF6DF752A400D8906EA05152A43B0
:1031A0004D8806EA05152A43444DA84202D0494DF0
:1031B000A8421DD14FF67F752A404D894FF6FF7604
:1031C00006EA05152A434FF6BF752A408D8806EAA0
:1031D00005152A434FF6FF352B404FF2FF752B4064
:1031E0008D8906EA85052B43CD8906EA85052B43A3
:1031F00083800483CD880587028470BD70B5002468
:1032000000220023058C4FF6FF6635400584028CB2
:103210008388848B4FF68F752C404FF6FC752C40BD
:103220000D882C434FF6FF552A400D894FF6FF7647
:1032300006EA05252A434D8806EA05252A431F4D3F
:10324000A84202D0234DA8421DD14FF2FF752A405B
:103250004D894FF6FF7606EA05252A434FF6FF35DE
:103260002A408D8806EA05252A434EF6FF752B4035
:103270004DF6FF752B408D8906EA05152B43CD8948
:1032800006EA05152B4383808483CD8885870284D5
:1032900070BD70B5002200230024058C4EF6FF7629
:1032A00035400584038C8488828B48F6FF752A405C
:1032B0004FF6FF452A400D8820E00000002C014019
:1032C0000004004000080040000C004000100040D6
:1032D0000014004000340140004C01400050014007
:1032E0000054014000180040001C00400020004035
:1032F0000040014000440140004801404FF6FF7685
:1033000006EA05252A434DF6FF752B400D8906EA8E
:1033100005352B434D8806EA05352B43FA4DA84267
:1033200002D0FA4DA84208D14BF6FF752C408D898A
:103330004FF6FF7606EA85152C4384808283CD887C
:10334000A0F84050038470BD828B4FF2FF331A40C7
:103350008283828B4FF6FF7303EA01231A43828331
:103360007047F0B50C461546002200210026078C58
:103370004EF6FF7C07EA0C070784828B018C4FF620
:10338000FF7707EA043640F6FF473A404FF6FF77EB
:1033900007EA05273A434FF6FF7707EA03373A4330
:1033A000D94FB8420ED0D94FB8420BD0B0F1804FB0
:1033B00008D0D74FB84205D0D64FB84202D0D64F2A
:1033C000B84206D14DF6FF77394046F4805739436D
:1033D00005E047F6FF57394044F48057394382836C
:1033E0000184F0BD828B4FF6F3731A408283828B87
:1033F0000A4382837047F0B50C461546002200212F
:103400000026078C4FF6FF6C07EA0C070784828BB7
:10341000018C4FF6FF7707EA04264FF60C773A4007
:103420004FF6FF7707EA03172F433A43B64FB842E8
:103430000ED0B64FB8420BD0B0F1804F08D0B44F89
:10344000B84205D0B34FB84202D0B34FB84206D10C
:103450004FF6FF57394046F48077394305E04FF285
:10346000FF57394044F48077394382830184F0BDAB
:10347000028B4FF2FF331A400283028B4FF6FF7329
:1034800003EA01231A4302837047F0B50C46154640
:10349000002200210026078C4FF6EF7C07EA0C077C
:1034A0000784028B018C4FF6FF7707EA041640F67B
:1034B000FF473A404FF6FF7707EA03373A434FF6A4
:1034C000FF7707EA05273A438F4FB8420ED08F4F58
:1034D000B8420BD0B0F1804F08D08D4FB84205D024
:1034E0008C4FB84202D08C4FB84206D14FF6DF77EE
:1034F000394046F01007394305E04FF65F77394011
:1035000044F01007394302830184F0BD028B4FF66B
:10351000F3731A400283028B0A4302837047F0B5AB
:103520000C46154600220021068C4FF6FE773E40E1
:103530000684028B018C4FF60C7632407E1C06EA24
:1035400003162E433243704EB0420ED06F4EB0423F
:103550000BD0B0F1804F08D06D4EB04205D06D4E0B
:10356000B04202D06C4EB04206D14FF6FD763140EB
:1035700044F00106314305E04FF6F576314044F062
:103580000106314302830184F0BD70B505460C4647
:103590005D4885420ED05D4885420BD0B5F1804F25
:1035A00008D05B48854205D05A48854202D05A4827
:1035B000854200D100E000BF208850B92389A2884D
:1035C00061882846FFF7ABFFE1882846FFF79EFF9A
:1035D00025E0208804280AD12389A288618828460A
:1035E000FFF753FFE1882846FFF742FF17E02088E6
:1035F00008280AD12389A28861882846FFF7FBFEA4
:10360000E1882846FFF7EEFE09E02389A288618859
:103610002846FFF7A6FEE1882846FFF795FE70BD15
:103620002DE9F04105460C4600260127608808B9BF
:10363000022600E00026A088012801D1022700E030
:1036400001272088A0B92389A28861882846FFF72E
:1036500066FFE1882846FFF759FF23893A4631463D
:103660002846FFF712FFE1882846FFF701FF13E025
:103670002389A28861882846FFF707FFE18828464A
:10368000FFF7F6FE23893A4631462846FFF747FF03
:10369000E1882846FFF73AFFBDE8F0810A884B88A9
:1036A0001A438B881A43CB881A430B891A434B89D8
:1036B0001A438B891A43A0F8442070474FF6FF71D4
:1036C000818000210180C18041800172704700210A
:1036D000018041808180C180018141818181C181DE
:1036E0007047002101804180012181800021C1803B
:1036F000018170470021018041808180C18001816A
:103700004181818170470000002C0140003401405C
:103710000004004000080040000C004021B1028875
:1037200042F00102028004E002884FF6FE731A4064
:103730000280704731B1B0F8442042F40042A0F852
:10374000442005E0B0F84420C2F30E02A0F8442063
:1037500070471AB183890B43838102E083898B43CD
:10376000838170478182704741EA0203A0F84830A4
:1037700070471AB183890B43838102E083898B43AD
:103780008381704701894FF6F872114001817047BB
:103790000A46002101894FF68F73194011430181B8
:1037A000704730B504460D4629462046FFF7F0FF26
:1037B000208940F00700208130BD2DE9F04104460A
:1037C0000D4616461F46602D06D13B460122314666
:1037D0002046FFF75AFE05E03B46012231462046CF
:1037E000FFF79DFE29462046FFF7D2FF208940F0D3
:1037F00007002081BDE8F08130B50C460021018929
:10380000C9B24FF6FF7505EA032515432543294341
:10381000018130BD2DE9F04105460E461746984618
:10382000002443463A4631462846FFF7E5FF2C89F7
:103830004FF6F870044044F007044FF68F700440D0
:1038400044F070042C81BDE8F081F0B504460D46CB
:1038500016461F463B46324629462046FFF7CCFF18
:10386000208940F480402081F0BD0185828270472C
:103870000A46002101884FF68F73194011430180D9
:103880007047F0B50C4615461E4600210022002365
:103890000189028B038C4FF6F877394021434FF6AC
:1038A000FC473A4040F201173A434FF6DD773B4080
:1038B0004FF6FF7707EA06172F433B430181028348
:1038C0000384F0BD0A460021018B4FF68F73194027
:1038D0001143018370470A460021018B48F6FF73AC
:1038E00019404FF6FF7303EA02231943018370471F
:1038F0000A460021818B4FF68F7319401143818353
:1039000070470A460021818B48F6FF7319404FF635
:10391000FF7303EA022319438183704721B10288B0
:1039200042F08002028004E002884FF67F731A4062
:103930000280704721B1828842F00402828004E054
:1039400082884FF6FB731A408280704721B18288CB
:1039500042F00802828004E082884FF6F7731A4032
:103960008280704721B1828842F00102828004E0A7
:1039700082884FF6FE731A40828070470A46002103
:10398000018B4FF6F77319401143018370470A46C4
:103990000021018B4FF2FF7319404FF6FF7303EACA
:1039A00002231943018370470A460021818B4FF699
:1039B000F77319401143818370470A460021818BB8
:1039C0004FF2FF7319404FF6FF7303EA02231943C6
:1039D000818370470A460021018B4FF6FB73194023
:1039E0001143018370470A460021018B4FF6FF33D4
:1039F00019404FF6FF7303EA02231943018370470E
:103A00000A460021818B4FF6FB73194011438183D5
:103A100070470A460021818B4FF6FF3319404FF65D
:103A2000FF7303EA02231943818370470A4600218A
:103A3000018B4FF67F7319401143018370470A468B
:103A40000021018BC1F30E014FF6FF7303EA02233D
:103A50001943018370470A460021818B4FF67F731B
:103A600019401143818370470A460021818BC1F3BD
:103A70000E014FF6FF7303EA022319438183704757
:103A80000A460021018C4FF6FD7319401143018451
:103A900070470A460021018C4FF6F7731940114315
:103AA000018470470A460021018C4FF6DF731940EC
:103AB0004FF6FF7303EA02131943018470470A4665
:103AC0000021018C4FF67F7319404FF6FF7303EA14
:103AD00002131943018470470A460021018C4FF6F6
:103AE000FF5319404FF6FF7303EA02231943018481
:103AF00070470A460021018C4FF2FF7319404FF6C0
:103B0000FF7303EA02231943018470470A46002128
:103B1000018C4DF6FF7319404FF6FF7303EA023331
:103B200019430184704730B5002301248C40A3B2AF
:103B3000048C9C430484048C02FA01F5ADB22C433E
:103B4000048430BD30B5002304248C40A3B2048C1F
:103B50009C430484048C02FA01F5ADB22C43048426
:103B600030BD70B5034600200024184618300125EA
:103B70008D40ACB21D8CA5431D8409B1082909D123
:103B800000EB6100056825F07005056005681543C8
:103B900005600EE00D1FC5F34E052844056825F4A9
:103BA000E045056005684FF6FF7606EA02263543D4
:103BB000056070BD21B1028842F00202028004E07B
:103BC00002884FF6FD731A400280704721B10288C7
:103BD00042F00402028004E002884FF6FB731A40B0
:103BE0000280704721B1828842F08002828004E026
:103BF00082884FF67F731A408280704702884FF6A2
:103C0000F7731A40028002880A4302807047828854
:103C10004FF68F731A40828082880A4382807047F1
:103C200002894FF6F8731A40028102890A43028121
:103C3000704702894FF67F731A40028102890A4356
:103C40000281704781847047818570478186704703
:103C50000187704781877047A0F84010704702883D
:103C60004FF6FF431A40028002880A4302807047E1
:103C70000146888E70470146088F70470146888F3D
:103C800070470146B1F8400070470146888C704784
:103C90000146088D704702460020138A0B400BB185
:103CA000012000E000207047CA430282704730B50F
:103CB0000246002000230024158A05EA01039589A5
:103CC00005EA010413B10CB1012000E0002030BD71
:103CD000CA4302827047000010B56FF00400FEF77F
:103CE0004AFB2E4800682E49B0FBF1F02D490870C0
:103CF0000846007800EB4001C1EBC0104FF6FF71A1
:103D000001EAC0002849088010BD0146254A127802
:103D10004A434FF0E0235A6100229A611A46126921
:103D200042F001021A6100BF4FF0E022106900F07A
:103D300001021AB100F48032002AF5D04FF0E022DF
:103D4000126922F001024FF0E0231A6100229A6109
:103D500070470146144A12884A434FF0E0235A61E3
:103D600000229A611A46126942F001021A6100BFEC
:103D70004FF0E022106900F001021AB100F4803225
:103D8000002AF5D04FF0E022126922F001024FF034
:103D9000E0231A6100229A6170470000440000206D
:103DA00000127A00080100200A01002010B54FF42B
:103DB000A060FEF791FA10BD014600BF704700BF3A
:103DC000F94A128802F04002002AF9D0C2B2F64B3A
:103DD0001B1D1A80704710B586B00446012144F2BD
:103DE0000400FEF703FE4FF40070ADF8140003204A
:103DF0008DF8160018208DF8170005A9EB48FEF77E
:103E000039FB4FF48060ADF8140004208DF81700E2
:103E100005A9E648FEF72EFB25208DF800000320BB
:103E20008DF801008DF8020001208DF8030068462E
:103E3000FEF757FA01940020ADF80800ADF80A002B
:103E4000ADF80C00ADF810000C20ADF80E0001A983
:103E5000D548FEF772FE012240F22551D248FEF706
:103E600004FF0121D048FEF7F4FE06B010BD10B5E6
:103E7000CF4A1070CF4A1278012A5BD1CE4ACF4B7D
:103E80001B78D054CD4A1278521CCC4B1A701A466B
:103E900012780F2A6ADB0022C64B1A70C74B1A70C1
:103EA000C74B1A70C74B1A7002210CE0C24B5A5C08
:103EB00002EBD2735B10A2EB4303C14C2478234482
:103EC000BF4C2370491C0C29F0DBBB4A127BBC4B56
:103ED0001B789A420AD1B84A527BF02A06D1B64AD8
:103EE000927BF02A02D10122B64B1A70B54A1278A1
:103EF000012A3BD1B04A5279B34B1A70AE4AD379FA
:103F0000927903EB022212B2B04B1A80AA4A537A7A
:103F1000127A03EB022212B2AD4B1A80A64AD37A70
:103F2000927A03EB022212B2AA4B1A800122AA4B08
:103F30001A601BE0FF2805D1A84A1278521CA74B33
:103F40001A7002E00022A54B1A70A44A1278022AC5
:103F50000CDB0022A14B1A700122964B1A70FF2233
:103F6000954B1A705A700222944B1A7010BD10B5FE
:103F700040F225518C48FEF75DFFB8B38A48FEF742
:103F8000D9FEC4B29648008800F4004058BB94485B
:103F9000008800F4804060B10A2C03D000209049D2
:103FA000088020E08E48008840F400408C4908805A
:103FB00019E00D2C06D18A48008840F480408849D9
:103FC000088010E086480088C0F30D0085490C5435
:103FD00083480088401C8249088008460088C7281A
:103FE00001DD002008802046FFF741FF10BD00BF23
:103FF0006D49098801F040010029F9D06A49091D7D
:104000000880704700B502460B460CE00020764958
:10401000886112F8010B6449091D088000BF7248CD
:1040200080690028FBD0181EA3F10103EED10D20FA
:10403000FFF7DDFF0A20FFF7DAFF00BD70B5054688
:104040000E4600240AE0295D684802780078401C8A
:10405000664B187066488154601CC4B2B442F2DBEF
:1040600051480C30008800F0800028B9012240F24D
:1040700027714D48FEF7F9FD70BD4D4908704D4957
:104080000978012911D14C494C4A127888544B497E
:104090000978491C494A117011460978042927DB1F
:1040A000454989784A4A118022E0EE2805D04B49DB
:1040B0000978012907D1FF2805D148490978491C09
:1040C000464A117002E00021444A117043490978C0
:1040D00002290DDB0021414A11700121354A11707E
:1040E000EE21354A1170FF2151700221334A1170BF
:1040F000704700F108024368D154C36E42689A4287
:1041000002DB0022426002E04268521C42607047BB
:10411000014601F108020B68D05CCB6E0A689A4236
:1041200002DB00220A6002E00A68521C0A60704743
:104130002DE9F041054600270024FF202D49087095
:104140004870B5F90040200A8870CC70B5F902407B
:10415000200A08714C71B5F90440200A8871CC71AD
:10416000B5F90640200A08724C72B5F90840200AD9
:104170008872CC72022609E01E49885D00EBD0717E
:104180004910A0EB41013944CFB2761C0C2EF3DB71
:1041900018480773F0201749487388730F21154892
:1041A000FFF74CFFBDE8F0810038014000080140F6
:1041B0003E01002014010020100400201501002001
:1041C0003C0100203D0100203F010020240100208F
:1041D00022010020260100203801002017010020C4
:1041E00034010020A0040020000027420C01002020
:1041F000EC020020EC03002070B505460C4600F0F0
:10420000CDF9D02000F07EFA00F009FA18B100F0E4
:10421000E5F9012070BD284600F074FA00F0FFF9BE
:10422000204600F06FFA00F0FAF918B100F0D6F964
:104230000120EFE700F0D2F90020EBE770B504466B
:104240000025BC2C01DB012510E0622C01DB0225DE
:104250000CE02A2C01DB032508E0142C01DB0425EB
:1042600004E00A2C01DB052500E0062529461A207A
:10427000FFF7C2FF70BD70B50446B4F57A7F01DD6B
:104280004FF47A74042C00DA04244FF47A7090FB13
:10429000F4F0401EC5B229461920FFF7ADFF0546D0
:1042A000264604EBD671C1F34F00FFF7C7FF70BD80
:1042B00070B5044600F072F9D02000F023FA00F047
:1042C000AEF9204600F01EFA00F0A9F900F066F9F8
:1042D000D12000F017FA00F0A2F9002000F03DFA1A
:1042E000054600F07BF9284670BD10B50446E0068F
:1042F000010E1C20FFF780FF10BD10B50446E0063C
:10430000010E1B20FFF778FF10BD10B500F02DF94E
:1043100080216B20FFF770FF6420FFF71AFD00215A
:104320006B20FFF769FF0020FFF7E7FF0020FFF792
:10433000DCFF3220FFF79FFF00213820FFF75CFFF2
:1043400000216A20FFF758FF00212320FFF754FFC8
:1043500080213720FFF750FF7520FFF7A9FF0446A3
:10436000682C0BD101216B20FFF746FF00216C2048
:10437000FFF742FF3220FFF77EFF01E0012010BD72
:104380000020FCE72DE9F04106460F4614461D4685
:1043900000F004F9002141EA4601C8B200F0B2F988
:1043A00000F03DF920B100F019F90120BDE8F081DD
:1043B000384600F0A7F900F032F900F0EFF80121DB
:1043C00001EB4601C8B200F09DF900F028F90DE0BC
:1043D000012C04D1002000F0C0F9287003E0012076
:1043E00000F0BBF92870601EC4B26D1C002CEFD128
:1043F00000F0F4F80020D9E72DE9F84F6B460222CF
:1044000041216820FFF7BEFF9DF801009DF80010D4
:1044100040EA01200FFA80FA504604F03CFB804647
:1044200000224B4B04F082F906464A4A4A4B04F0FC
:10443000CDF8044604F098F883464849584605F0FC
:1044400047F8044604F0A8FF00B2BDE8F88F2DE954
:10445000FC4104460D4616466B4606224321682061
:10446000FFF790FF0746BFB99DF801009DF80010C7
:1044700040EA012000B220809DF803009DF8021060
:1044800040EA012000B228809DF805009DF8041044
:1044900040EA012000B230803846BDE8FC812DE9B9
:1044A000FC4104460D4616466B4606223B21682019
:1044B000FFF768FF0746BFB99DF801009DF800109F
:1044C00040EA012000B220809DF803009DF8021010
:1044D00040EA012000B228809DF805009DF80410F4
:1044E00040EA012000B230803846BDE8FC812DE969
:1044F000F04105460E461746984600F04FF8002159
:1045000041EA4501C8B200F0FDF800F088F820B19A
:1045100000F064F80120BDE8F081304600F0F2F8C8
:1045200000F07DF800240CE018F8040000F0EAF830
:1045300000F075F818B100F051F80120EBE7601CAD
:10454000C4B2BC42F0DB00F049F80020E3E7000011
:1045500000407540A4703D0AD74342400000C84265
:1045600010B50220FFF7D1FB10BD08B501210820CE
:10457000FEF73CFA4FF44060ADF8000010208DF8D3
:10458000030003208DF8020069468D48FDF772FF95
:104590004FF440618A48FEF71AF808BD10B5884804
:1045A000001D006820F470408549091D0860084618
:1045B000006840F440500860012082490860824948
:1045C000C1F8A801FFF7CCFF00207E490860FFF783
:1045D000C7FF00207C49C1F8A80110BD10B578487C
:1045E000001D006820F470407549091D08600846E8
:1045F000006840F44050086000207249091F0860BC
:104600007149C1F8AC01FFF7ABFF01206D49091FEB
:1046100008606D49C1F8AC01FFF7A2FF10BD10B5ED
:1046200000246748001D006820F470406449091D9B
:1046300008600846006840F40040086001206149B5
:104640000860FFF78DFF01205F49C1F8A801FFF75F
:1046500087FF07E0601CC4B2FA2C03DDFFF7BEFF42
:10466000012010BD5748803800680028F2D1554914
:10467000091F086000BFF4E710B500205149091F69
:1046800008604F48001D006820F470404C49091D27
:1046900008600846006840F44050086000204A491D
:1046A000C1F8AC01FFF75CFF01204649091F086013
:1046B000FFF756FF00204449C1F8A80110BD10B50E
:1046C00000204049091F08603D48001D006820F493
:1046D00070403B49091D08600846006840F440509E
:1046E000086001203849C1F8AC01FFF739FF01200B
:1046F0003449091F0860FFF733FF00203249C1F831
:10470000A80110BD70B504462D48001D006820F4B6
:1047100070402B49091D08600846006840F440506D
:10472000086000202749091F0860002512E0E00901
:10473000244908606006040E01202349C1F8A8013D
:10474000FFF70EFF00201F49091F0860FFF708FF51
:10475000681CC5B2082DEADB70BD70B505460024A3
:104760001748001D006820F470401549091D0860B5
:104770000846006840F400400860002615E000206C
:104780001049091F0860FFF7EBFE01200E49C1F830
:10479000A8016006040E0B488038006808B1601C50
:1047A000C4B2FFF7DDFE701CC6B2082EE7DB15B9F8
:1047B000FFF785FF01E0FFF75FFF204670BD0000B7
:1047C000000C0140AC8121420080214238B50446F2
:1047D000F74890F82400C0B114B10220009001E025
:1047E00000200090F24A1268D17BF14A526810789A
:1047F0006B460122FFF77BFE10B14FF0FF3038BD52
:104800009DF80010EA48417423E0E948807A10B925
:104810004FF0FF30F3E724B1E548407C08B10020B9
:10482000EDE714B10120009001E000200090E04A83
:104830001268D17BDE4A526810786B460122FFF77E
:1048400056FE10B14FF0FF30D9E79DF80010D84860
:1048500041740020D3E738B500241FE0D448006835
:10486000C07AA04204D0D2480068407DA04200D166
:1048700012E0CF49496808786B4601222146FFF7CC
:1048800081FD10B14FF0FF3038BD9DF8002021466A
:10489000C8A002F0BDFF00BF601CC4B2C44840689D
:1048A0000079A042DADC0020EEE770B504460D4640
:1048B000BF480068C07AA04204D0BD480068407D6F
:1048C000A04202D14FF0FF3070BDB9484068007976
:1048D000A04202DC4FF0FF30F6E7B549496808789E
:1048E0002B4601222146FFF74DFDEDE738B5044682
:1048F000AF4890F82300A04201D1002038BD14B188
:104900003020009001E000200090A948807C20B178
:104910009DF8000040F002000090A54890F82200A9
:1049200020B19DF8000040F080000090A04A12687D
:10493000117D9F4A526810786B460122FFF7D7FD20
:1049400010B14FF0FF30D9E7994880F8234000209C
:10495000D4E738B5044604F0700010B1012000908F
:1049600005E014B10020009001E040200090904A42
:104970001268917C8E4A526810786B460122FFF7CC
:10498000B6FD20B100218A488172481E38BD9DF8CD
:10499000000020F04001864801730020009004F0E0
:1049A000400020B99DF8000040F00400009004F0A1
:1049B000200020B99DF8000040F00200009004F0B3
:1049C000100020B99DF8000040F00100009004F0B4
:1049D000080020B99DF8000040F038000090744AAB
:1049E0001268D17C724A526810786B460122FFF738
:1049F0007EFD20B100216E488172481EC6E724B1B9
:104A0000082C02D00020FFF771FF69488472002152
:104A100001753220FFF79DF90020B7E738B504464D
:104A20006348807CA04201D1002038BD002C46D0D4
:104A30005F4A126811795E4A526810786B4601220B
:104A4000FFF7A0FC10B14FF0FF30EEE79DF800003B
:104A500020F020000090564A12681179544A52689A
:104A600010786B460122FFF742FD10B14FF0FF3086
:104A7000DBE70320FFF76DF9022000904C4890F827
:104A8000220020B19DF8000040F0800000904848CE
:104A900090F8230020B19DF8000040F03000009015
:104AA000434A1268117D424A526810786B460122CF
:104AB000FFF71DFD002851D04FF0FF30B5E73C4A0D
:104AC000126811793A4A526810786B460122FFF752
:104AD00059FC10B14FF0FF30A7E73548807A00F05D
:104AE000010028B19DF8000040F02000009004E093
:104AF0009DF8000020F0200000902D4A12681179E6
:104B00002B4A526810786B460122FFF7F0FC10B177
:104B10004FF0FF3089E70320FFF71BF9244890F896
:104B2000220010B18020009001E000200090204879
:104B300090F8230020B19DF8000040F03000009074
:104B40001B4A1268117D1A4A526810786B4601227E
:104B5000FFF7CDFC10B14FF0FF3066E714488474C6
:104B6000002062E708B51248807A10B94FF0FF3094
:104B700008BD002000900E4A1268D17B0C4A526892
:104B800010786B460122FFF7B2FC10B14FF0FF30F6
:104B9000EEE7074A12685179054A526810786B4669
:104BA0000122FFF7A4FC68B14FF0FF30E0E70000FE
:104BB00040010020252335783A20252335780D0A39
:104BC00000000000F84A12681179F74A526810781C
:104BD0006B460122FFF78BFC10B14FF0FF30C7E7A7
:104BE000F14890F82400002853D00C200090EE4AA1
:104BF00012681179EC4A526810786B460122FFF76F
:104C000076FC10B14FF0FF30B2E73220FFF7A1F889
:104C1000C0200090E448807A00F0010020B19DF8A7
:104C2000000040F020000090DF4A12681179DE4A4F
:104C3000526810786B460122FFF759FC10B14FF013
:104C4000FF3095E7D848407C10B10220009001E089
:104C500000200090D44A1268D17BD34A5268107861
:104C60006B460122FFF743FC10B14FF0FF307FE7A6
:104C700000200090CC4A12685179CB4A52681078D3
:104C80006B460122FFF733FC002855D04FF0FF3070
:104C90006EE704200090C44A12681179C24A526833
:104CA00010786B460122FFF722FC10B14FF0FF3065
:104CB0005EE7BD48807C20B9BB48807A00F00100E7
:104CC00010B94020009001E060200090B64A1268C0
:104CD0001179B54A526810786B460122FFF707FC3C
:104CE00010B14FF0FF3043E73220FFF732F8AE4803
:104CF000407C10B10120009001E000200090AA4A01
:104D00001268D17BA84A526810786B460122FFF7DF
:104D1000EEFB10B14FF0FF302AE7A34A1268517939
:104D2000A14A52681078A04B10330122FFF7DFFB35
:104D300010B14FF0FF301BE7002019E770B50446B3
:104D4000002624F00104984890F8240008B10020BF
:104D500070BD9548807A10B94FF0FF30F8E792485F
:104D6000057C807A2040904908740846007CA04267
:104D700002D04FF0FF3600E0002614B98A48007DCB
:104D800018B10120FFF722FD02E00020FFF71EFD11
:104D90003CB1FFF7E7FE20B1834805744FF0FF30C8
:104DA000D6E73046D4E738B504467F48807A10B954
:104DB0004FF0FF3038BDBC2C02DB0120009015E025
:104DC000622C02DB0220009010E02A2C02DB032080
:104DD00000900BE0142C02DB0420009006E00A2C6B
:104DE00002DB0520009001E0062000906E48C07AAA
:104DF0009DF80010884201D10020DBE76A4A126862
:104E00009178694A526810786B460122FFF76FFB70
:104E100010B14FF0FF30CDE79DF800106248C1722D
:104E20000020C7E738B50446282C02DD4FF0FF30DC
:104E300038BDDCB90020FFF759FD00208DF80000D7
:104E400007208DF80100584A1268917C564A526832
:104E500010786B460222FFF74AFB10B14FF0FF308B
:104E6000E6E70021504801750020E1E70120FFF747
:104E70003DFD20208DF80000012C06D100208DF88A
:104E800001000520FFF78FFF17E0052C06DC01204D
:104E90008DF801000520FFF786FF0EE0142C06DCDC
:104EA00002208DF801000A20FFF77DFF05E00320B6
:104EB0008DF801001420FFF776FF9DF8010007210F
:104EC00001EB8010C0B28DF80100374A1268917C66
:104ED000354A526810786B460222FFF708FB10B182
:104EE0004FF0FF30A4E708212F48817200210173A1
:104EF000012101750020FFF721FF002098E738B558
:104F000004462948807A10B94FF0FF3038BD264852
:104F100090F8240010B14FF0FF30F7E72248007DF1
:104F200050B134B1282C04DCE0B2FFF77BFF002045
:104F3000ECE70020FFF776FF042C01DA042404E0FC
:104F4000B4F57A7F01DD4FF47A744FF47A7090FBF8
:104F5000F4F0401EC0B20090134A12685178124A11
:104F6000526810786B460122FFF7C1FA10B14FF07A
:104F7000FF30CBE79DF80000401C4FF47A7191FBA5
:104F8000F0F081B20848C1810146C9894810FFF795
:104F90000AFF0020BAE738B504460348807A28B9EA
:104FA0004FF0FF3038BD000040010020022C06D039
:104FB000042C07D0082C08D0102C0CD108E00020BD
:104FC00000900BE00820009008E01020009005E021
:104FD0001820009002E04FF0FF30E3E700BFF948EF
:104FE000407A9DF80010B0EBE10F01D10020D9E725
:104FF000F44A1268D179F34A526810786B4601225C
:10500000FFF775FA10B14FF0FF30CBE79DF80000C5
:10501000C110EC4841720020C4E738B50446E948A5
:10502000807A10B94FF0FF3038BDFA2C09D0B4F5B2
:10503000FA7F09D0B4F57A7F09D0B4F5FA6F0CD1B4
:1050400008E0002000900BE00820009008E010200D
:10505000009005E01820009002E04FF0FF30E3E7F9
:1050600000BFD848007A9DF80010B0EBE10F01D1E5
:105070000020D9E7D34A12689179D24A5268107851
:105080006B460122FFF733FA10B14FF0FF30CBE748
:105090009DF80000C010CB4908720020C4E71CB581
:1050A00080208DF80000C74A1268917CC54A52687A
:1050B00010786B460122FFF71AFA10B14FF0FF305B
:1050C0001CBD6420FEF745FE00208DF80000BD4A9F
:1050D0001268917CBB4A526810786B460122FFF738
:1050E00006FA10B14FF0FF30EAE7B64A1268917D38
:1050F000B44A526810786B460622FFF743F910B1A4
:105100004FF0FF30DCE79DF80500C007400F9DF829
:10511000031001F0010140EA41009DF8011001F087
:10512000010140EA010494B1012C03D10121A548F9
:10513000C17431E0022C03D10021A248C1742BE0DC
:105140002146A1A002F064FB4FF0FF30B8E79D4A72
:105150001268D1789B4A526810786B460122FFF79B
:1051600011F910B14FF0FF30AAE79DF8000000F0F0
:105170000F042CB99E4802F04BFB4FF0FF309FE725
:10518000042C06D19BA002F043FB01218D48C17481
:1051900002E000218B48C174FF218A488172FF2000
:1051A00088490872FF2187484172C1724FF6FF712A
:1051B000C181FF21017481740121017380F82210E3
:1051C000002180F82310417501751630016041609F
:1051D0008160163880F8241080F82510C1844FF4BF
:1051E000FA60FFF71AFF10B14FF0FF3068E70220B6
:1051F000FFF7D1FE10B14FF0FF3061E72A20FFF733
:10520000D2FD10B14FF0FF305AE73220FFF777FEA2
:1052100010B14FF0FF3053E70020FFF78FFD10B1C2
:105220004FF0FF304CE70020FFF7F8FB10B14FF0D4
:10523000FF3045E70020FFF78CFB002040E7704778
:105240007CB504460D465F48807A00F0700010B9C6
:105250004FF0FF307CBD5B4A1268117B594A52689F
:1052600010786B460622FFF78DF810B14FF0FF3033
:10527000F0E79DF801009DF8001040EA012000B21F
:1052800020809DF803009DF8021040EA012000B242
:1052900060809DF805009DF8041040EA012000B2EE
:1052A000A08015B12846FFF7CAFF0020D2E77CB5E1
:1052B00004460D464348807A00F0080010B94FF0CC
:1052C000FF307CBD3F4A1268517B3E4A52681078DD
:1052D0006B460622FFF756F810B14FF0FF30F0E7AB
:1052E0009DF801009DF8001040EA012000B22080E6
:1052F0009DF803009DF8021040EA012000B2608092
:105300009DF805009DF8041040EA012000B2A0803D
:1053100015B12846FFF793FF0020D2E72DE9FE4F95
:1053200005460C462748807A18B94FF0FF30BDE893
:10533000FE8F244A1268917B224A5268107802AB91
:105340000222FFF71FF810B14FF0FF30EFE79DF892
:1053500009009DF8081040EA012006B214B1204669
:10536000FFF76DFF17494968C88804F069F81549C7
:1053700001904968B1F9080004F04AF883463046C4
:1053800004F046F85946009004F0AAF982460199C3
:1053900003F00CFF81461F4903F09AFE80464FF050
:1053A0008F4104F095F8074603F0F6FF28600020CF
:1053B000BDE710B588B004461CB94FF0FF3008B007
:1053C00010BD29E040010020556E737570706F723A
:1053D00074656420736F6674776172652070726F94
:1053E00064756374207265762025642E0A000000BF
:1053F00030A6000848616C662073656E7369746935
:1054000076697479207061727420666F756E642E8F
:105410000A00000000000C42206830B9606820B922
:10542000A06810B9002008B010BDFA494968087892
:1054300006AB03221146FEF7A5FF10B14FF0FF3077
:10544000F1E79DF81800082101EB201000F00F0093
:10545000ADF800009DF8190001EB201000F00F00DE
:10546000ADF802009DF81A0001EB201000F00F00CB
:10547000ADF8040020684100BDF90000403091FB08
:10548000F0F000B2ADF8100060684100BDF9020014
:10549000403091FBF0F000B2ADF81200A06841007E
:1054A000BDF90400403091FBF0F000B2ADF81400FB
:1054B000D8494968087806AB06221146FEF762FF14
:1054C00010B14FF0FF30AEE79DF819009DF81810AD
:1054D00040EA012000B2ADF808009DF81B009DF8DD
:1054E0001A1040EA012000B2ADF80A009DF81D0034
:1054F0009DF81C1040EA012000B2ADF80C00BDF888
:105500001000BDF80810084400B2ADF81000BDF856
:105510001200BDF80A10084400B2ADF81200BDF840
:105520001400BDF80C10084400B2ADF81400BDF82A
:105530001000000A8DF81800BDF81000C0B28DF8F8
:105540001900BDF81200000A8DF81A00BDF812000B
:10555000C0B28DF81B00BDF81400000A8DF81C00C5
:10556000BDF81400C0B28DF81D00AA49496808783A
:1055700006AB06221146FEF7BAFF10B14FF0FF301E
:1055800051E700204FE70146A248007A30B10128D8
:1055900007D0022809D003280FD10AE0FA2008809A
:1055A0000EE04FF4FA7008800AE04FF47A70088039
:1055B00006E04FF4FA60088002E00020088000BF97
:1055C00000BF0020704701469248407A30B1012860
:1055D00007D0022808D003280CD108E00220087068
:1055E0000BE00420087008E00820087005E0102097
:1055F000087002E04FF0FF30704700BF8548C07C64
:1056000018B108784006000E08700020F4E7014643
:105610008048C07A082817D2DFE800F01704070A8C
:105620000D101318BC20088013E06220088010E0E1
:105630002A2008800DE0142008800AE00A20088053
:1056400007E00520088004E000BF00BF00200880BC
:1056500000BF00BF0020704701466E4890F824004C
:1056600010B14FF0FF3070476A48C08908800020B1
:10567000F9E7014600200880401E704701464FF0C0
:10568000FF30704701466348007A30B1012807D0E7
:10569000022808D003280CD108E05F4808600BE01E
:1056A0005E48086008E05E48086005E05D48086004
:1056B00002E04FF0FF30704700BF0020FBE70146DB
:1056C0005448407A30B1012808D002280AD0032873
:1056D00010D10BE04FF4804008800EE041F69C7042
:1056E00008800AE04FF48050088006E04FF4006024
:1056F000088002E04FF0FF30704700BF4548C07C93
:1057000010B10888401008800020F5E701464148A4
:10571000007C08700020704701463E48807A10B136
:105720000120087001E0002008700020704738B5A3
:1057300004463848807A10B94FF0FF3038BD354AFA
:105740001268117C334A526810786B460222FEF7C9
:1057500019FE10B14FF0FF30F0E79DF801009DF801
:10576000001040EA012000B220800020E6E72DE989
:10577000FE4F0746884692461D46DDF830B00026AB
:105780000024244890F8240010B1601EBDE8FE8F6C
:10579000002028701F48807A10B94FF0FF30F5E7DD
:1057A0001C48007C10B94FF0FF30EFE71948007C2F
:1057B00000F0400008B1B01CC6B21648007C00F0F2
:1057C000200008B1B01CC6B21248007C00F01000E6
:1057D00008B1B01CC6B20F48007C00F0080008B148
:1057E000B01DC6B20B4A1268917A0A4A5268107804
:1057F0006B460222FEF7C6FD10B14FF0FF30C5E741
:105800009DF801009DF8001040EA0129B1450BDA2E
:105810000020BBE74001002000000343000083425A
:105820003333034233338341FC4840684088B9EB4B
:10583000600F17DDF94A1268517CF84A52681078F7
:105840006B460122FEF79EFD10B14FF0FF309DE741
:105850009DF8000000F0100020B1FFF783F96FF011
:10586000010093E75046FFF7EAFCEC4A1268D17A50
:10587000EA4A526810786B463246FEF783FD10B153
:105880004FF0FF3082E799FBF6F0401E8BF80000E6
:1058900000202870B4422AD0E048007C00F00800C4
:1058A00028B3601C1DF800001DF8041040EA012018
:1058B00000B2A8F80000E01C1DF80010A01C1DF8A4
:1058C000000041EA002000B2A8F80200601D1DF8A7
:1058D0000010201D1DF8000041EA002000B2A8F8C9
:1058E0000400287840F008002870A01D84B2B4425B
:1058F00013D0CA48007C00F0400070B1601C1DF855
:1059000000001DF8041040EA012000B23880287819
:1059100040F040002870A01C84B2B44213D0BF48AD
:10592000007C00F0200070B1601C1DF800001DF824
:10593000041040EA012000B27880287840F020006E
:105940002870A01C84B2B44213D0B448007C00F08C
:10595000100070B1601C1DF800001DF8041040EA32
:10596000012000B2B880287840F010002870A01CF8
:1059700084B200200AE7F8B504460F461646A74849
:1059800090F8240010B94FF0FF30F8BDA348807A9A
:1059900010B94FF0FF30F8E7A04A1268917A9F4A99
:1059A000526810786B460222FEF7ECFC10B14FF003
:1059B000FF30EAE79DF801009DF8001040EA01255C
:1059C000A54203DA00203070401EDEE793484068AD
:1059D0004088B5EB600F17DD904A1268517C8F4A02
:1059E000526810786B460122FEF7CCFC10B14FF0E4
:1059F000FF30CAE79DF8000000F0100020B1FFF76B
:105A0000B1F86FF00100C0E7E2B2844B1B68D97AAD
:105A1000824B5B6818783B46FEF7B4FC10B14FF040
:105A2000FF30B2E795FBF4F0401E30700020ACE789
:105A300001467A4880F82210002070477CB5054660
:105A400076494968087801AB04220D21FEF79AFCDB
:105A500008B107207CBD9DF80700C0F301109DF838
:105A6000041001F0E00140EAE1008DF800009DF82B
:105A70000700C0F381009DF8051001F0E00140EA45
:105A8000E1008DF801009DF8070000F003009DF88B
:105A9000061001F0E00140EAE1008DF80200002468
:105AA0001CE01DF8040018B9002045F8240013E09C
:105AB0005B4845F8240006E055F82400594903F0F6
:105AC00007FD45F824001DF80400401EC0B20DF883
:105AD00004000028F0D100BF601CC4B2032CE0DB3E
